:100000000C9462000C948A000C948A000C948A0070
:100010000C948A000C948A000C948A000C948A0038
:100020000C948A000C948A000C948A000C948A0028
:100030000C948A000C948A000C948A000C948A0018
:100040000C9465050C948A000C94D5050C94AF05AE
:100050000C948A000C948A000C948A000C948A00F8
:100060000C948A000C948A000000000024002700F1
:100070002A0000000000250028002B0000000000DE
:1000800023002600290004040404040404040202DA
:100090000202020203030303030301020408102007
:1000A0004080010204081020010204081020000012
:1000B0000008000201000003040700000000000027
:1000C0000000E80611241FBECFEFD8E0DEBFCDBF91
:1000D00012E0A0E0B1E0E4E0FFE002C005900D9284
:1000E000A232B107D9F722E0A2E2B2E001C01D922C
:1000F000A43DB207E1F710E0C2E6D0E004C02197CA
:10010000FE010E945F07C136D107C9F70E940706AA
:100110000C9480070C940000833081F028F4813027
:1001200099F08230A1F008958730A9F08830B9F0B5
:100130008430D1F4809180008F7D03C08091800055
:100140008F7780938000089584B58F7702C084B53F
:100150008F7D84BD08958091B0008F7703C080911A
:10016000B0008F7D8093B0000895CF93DF93282F48
:1001700030E0F901E255FF4F8491F901E656FF4F57
:10018000D491F901EA57FF4FC491CC2391F081112A
:100190000E948C00EC2FF0E0EE0FFF1FE458FF4FA1
:1001A000A591B491EC91ED2381E090E021F480E001
:1001B00002C080E090E0DF91CF9108951F93CF932C
:1001C000DF93282F30E0F901E255FF4F8491F901C8
:1001D000E656FF4FD491F901EA57FF4FC491CC2363
:1001E000C9F0162F81110E948C00EC2FF0E0EE0F69
:1001F000FF1FEE58FF4FA591B4918FB7F8941111DE
:1002000005C09C91ED2FE095E92302C0EC91ED2B08
:10021000EC938FBFDF91CF911F910895CF93DF9320
:1002200090E0FC01E656FF4F2491FC01EA57FF4F96
:100230008491882361F190E0880F991FFC01E859AF
:10024000FF4FC591D491FC01EE58FF4FA591B49199
:10025000611109C09FB7F894888120958223888313
:10026000EC912E230BC0623061F49FB7F894388173
:10027000822F809583238883EC912E2B2C939FBF14
:1002800006C08FB7F894E8812E2B28838FBFDF91AB
:10029000CF9108953FB7F894809133029091340242
:1002A000A0913502B091360226B5A89B05C02F3F1C
:1002B00019F00196A11DB11D3FBFBA2FA92F982F8C
:1002C0008827820F911DA11DB11DBC01CD0142E007
:1002D000660F771F881F991F4A95D1F708958F924F
:1002E0009F92AF92BF92CF92DF92EF92FF926B01FB
:1002F0007C010E944A014B015C01C114D104E1045C
:10030000F104F1F00E944A01DC01CB01881999093E
:10031000AA09BB09883E9340A105B10570F321E00D
:10032000C21AD108E108F10888EE880E83E0981E11
:10033000A11CB11CC114D104E104F10419F7DDCFF3
:10034000FF90EF90DF90CF90BF90AF909F908F90F5
:100350000895CF92DF92EF92FF920F931F93CF9366
:10036000DF936C017A018B01C0E0D0E0CE15DF0590
:1003700089F0D8016D918D01D601ED91FC9101902C
:10038000F081E02DC6010995892B11F47E0102C090
:100390002196ECCFC701DF91CF911F910F91FF9074
:1003A000EF90DF90CF900895FC01918D828D98178A
:1003B00061F0828DDF01A80FB11D5D968C91928D49
:1003C0009F5F9F73928F90E008958FEF9FEF089546
:1003D000FC01918D828D981731F0828DE80FF11D0F
:1003E000858D90E008958FEF9FEF0895FC01918D2A
:1003F000228D892F90E0805C9F4F821B91098F7323
:100400009927089587E392E00E94F60121E0892B65
:1004100009F420E0822F0895FC01848DDF01A80FEC
:10042000B11DA35ABF4F2C91848D90E001968F731C
:100430009927848FA689B7892C93A089B1898C913B
:1004400080648C93938D848D981306C00288F38901
:10045000E02D80818F7D80830895EF92FF920F932E
:100460001F93CF93DF93EC0181E0888F9B8D8C8D60
:10047000981305C0E889F989808185FD24C0F62E8E
:100480000B8D10E00F5F1F4F0F731127E02E8C8D27
:10049000E8120CC00FB607FCFACFE889F989808111
:1004A00085FFF5CFCE010E940C02F1CF8B8DFE01AE
:1004B000E80FF11DE35AFF4FF0820B8FEA89FB89A9
:1004C0008081806207C0EE89FF896083E889F989AD
:1004D00080818064808381E090E0DF91CF911F91E3
:1004E0000F91FF90EF900895CF93DF93EC01888DEB
:1004F0008823C9F0EA89FB89808185FD05C0A88928
:10050000B9898C9186FD0FC00FB607FCF5CF8081AD
:1005100085FFF2CFA889B9898C9185FFEDCFCE01F7
:100520000E940C02E7CFDF91CF91089580E090E028
:10053000892B29F00E94020281110C940000089579
:100540000F931F93CF93C82F8B0162E370E080E07D
:1005500090E00E946F018C2F0E94B500019739F442
:10056000F80109958C2F0E94B5000197D9F3CF911E
:100570001F910F910895CF93C82F64E670E080E03B
:1005800090E00E946F0161E08C2F0E94DE0064E623
:1005900070E080E090E00E946F0160E08C2FCF91CE
:1005A0000C94DE00CF93DF9380912C0290912D026A
:1005B0000397D1F0E0912A02F0912B02EF01CC0FCA
:1005C000DD1FFE01E05FFE4F808191810E94BB0232
:1005D000FE01EE5DFD4F8081918101966AE070E041
:1005E0000E94150791838083DF91CF910895CF9367
:1005F000DF93C0E0D0E060E0CE010E947207219658
:10060000C630D105C1F7DF91CF910895CF92DF9227
:10061000EF92FF920F931F93CF93DF931F92CDB76B
:10062000DEB77C018C0182E0C82ED12CF8016191EB
:100630008F01C60169830E946A076981681719F0F2
:10064000C6010E947207FFEFCF1ADF0A86E0C816C4
:10065000D10461F7C7010F90DF91CF911F910F91E6
:10066000FF90EF90DF90CF900895EF92FF920F935D
:100670001F93CF93DF937C018C01C2E0D0E0CE01C9
:100680000E946A07F80181938F012196C630D10537
:10069000B1F7C701DF91CF911F910F91FF90EF90BC
:1006A0000895009769F0FC0101900020E9F7319767
:1006B000AF01481B590BBC0187E392E00C94A901E0
:1006C00080E090E00895CF93DF930E945103EC0106
:1006D00088E191E00E9451038C0F9D1FDF91CF9123
:1006E0000895E2E2F2E011821082138212821582F2
:1006F0001482178216828BE191E00C94630380913F
:100700002C0290912D020397C1F482E391E00E94A4
:10071000630381E090E090932D0280932C0210926D
:100720002B0210922A020E94710361E082E00E9473
:10073000DE0060E083E00C94DE0008950F931F93C9
:10074000CF93DF9300D000D0CDB7DEB700912A025F
:1007500010912B020330110539F00F5F1F4F1093DA
:100760002B0200932A0280C089E491E00E94630377
:1007700080912C0290912D028230910509F048C0A1
:1007800019821A821B821C82CE0101960E943503B7
:100790008981082E000C990B2091220230912302AE
:1007A0002817390731F58A81082E000C990B209102
:1007B00024023091250228173907D9F48B81082E9D
:1007C000000C990B20912602309127022817390737
:1007D00081F48C81082E000C990B20912802309115
:1007E00029022817390729F48AE591E00E9463035A
:1007F00025C08BE791E00E94630384E090E00E94B3
:10080000BB0210922B0210922A020E9471031AC09E
:100810000197C1F48EE891E00E9463038091280261
:1008200090912602209124023091220239832A835A
:100830009B838C83CE0101960E94060310932D02A8
:1008400000932C0280912C0290912D02039741F489
:1008500061E083E00E94DE0060E082E00E94DE0052
:1008600010922B0210922A02E0912A02F0912B02A0
:10087000EE0FFF1FE05FFE4F808191810E94BB025F
:100880000F900F900F900F90DF91CF911F910F91CC
:1008900008958F929F92AF92BF920F931F93CF9321
:1008A000DF93CDB7DEB7A1970FB6F894DEBF0FBECA
:1008B000CDBF19A2423008F44AE08E010F5D1F4FF0
:1008C000842E912CA12CB12CA50194010E94290702
:1008D000E62FB901CA0101501109EA3014F4E05DB4
:1008E00001C0E95CD801EC93232B242B252B61F765
:1008F000C8010E945103A1960FB6F894DEBF0FBE47
:10090000CDBFDF91CF911F910F91BF90AF909F907E
:100910008F900895CF92DF92EF92FF92CF93DF9363
:100920006B017C01E0913702F09138020190F08177
:10093000E02D6DE287E392E00995EC0166277727C9
:10094000CB016C197D098E099F094AE00E94490478
:100950008C0F9D1FDF91CF91FF90EF90DF90CF9094
:100960000895CF93DF93BC01990F880B990B97FFE4
:1009700003C00E948A0403C04AE00E944904EC01BB
:1009800088E191E00E9451038C0F9D1FDF91CF9170
:100990000895BC01990F880B990B97FD0C948A045C
:1009A0004AE00C9449041F93CF93DF93CDB7DEB791
:1009B00027970FB6F894DEBF0FBECDBF80E090E062
:1009C0000E946A07182F81E090E00E946A071F3793
:1009D00011F48F3791F182EA91E00E9463030E9443
:1009E000F70219821A821B821C82CE0101960E9494
:1009F00006038CEA91E00E9463031FE71D831E83B8
:100A000080E090E00E946A07181729F06FE780E005
:100A100090E00E9472076E8181E090E06F830E94F7
:100A20006A076F81681721F081E090E00E947207E9
:100A300084EC91E00E94630328C080EE91E00E9464
:100A4000630319821A821B821C82CE0101960E94C6
:100A500035038CEF91E00E9451038981082E000C30
:100A6000990B0E94C9048A81082E000C990B0E94E0
:100A7000C9048B81082E000C990B0E94C9048C813B
:100A8000082E000C990B0E94B10427960FB6F8941B
:100A9000DEBF0FBECDBFDF91CF911F9108950E94A1
:100AA000F7020E94710382E090E090932D02809300
:100AB0002C020E94D30460E083E00E94DE0060E02C
:100AC00082E00C94DE000E9465071F920F920FB621
:100AD0000F9211242F933F938F939F93AF93BF93C4
:100AE00080912F0290913002A0913102B091320298
:100AF00030912E0223E0230F2D3720F40196A11D03
:100B0000B11D05C026E8230F0296A11DB11D20933B
:100B10002E0280932F0290933002A0933102B09363
:100B200032028091330290913402A0913502B0914B
:100B300036020196A11DB11D8093330290933402B9
:100B4000A0933502B0933602BF91AF919F918F91E0
:100B50003F912F910F900FBE0F901F9018951F92ED
:100B60000F920FB60F9211242F933F934F935F93E1
:100B70006F937F938F939F93AF93BF93EF93FF9365
:100B800087E392E00E940C02FF91EF91BF91AF9139
:100B90009F918F917F916F915F914F913F912F9195
:100BA0000F900FBE0F901F9018951F920F920FB6C7
:100BB0000F9211242F938F939F93EF93FF93E091C4
:100BC0004702F09148028081E0914D02F0914E027F
:100BD00082FD12C09081809150028F5F8F732091AF
:100BE0005102821751F0E0915002F0E0E95CFD4FB4
:100BF000958F8093500201C08081FF91EF919F916A
:100C00008F912F910F900FBE0F901F901895789491
:100C100084B5826084BD84B5816084BD85B5826001
:100C200085BD85B5816085BD80916E0081608093B2
:100C30006E0010928100809181008260809381001B
:100C4000809181008160809381008091800081602B
:100C5000809380008091B10084608093B100809186
:100C6000B00081608093B00080917A0084608093AE
:100C70007A0080917A00826080937A0080917A0075
:100C8000816080937A0080917A00806880937A00F6
:100C90001092C100E0914702F091480282E0808307
:100CA000E0914302F09144021082E0914502F091FC
:100CB00046028FEC808310924F02E0914B02F0913C
:100CC0004C0286E08083E0914902F0914A028081E3
:100CD00080618083E0914902F0914A0280818860BE
:100CE0008083E0914902F0914A028081806880838C
:100CF000E0914902F0914A0280818F7D808360E01B
:100D000089E00E940E0160E08AE00E940E0160E02E
:100D10008BE00E940E0160E08CE00E940E0161E019
:100D200084E00E940E0161E083E00E940E0161E018
:100D300082E00E940E0161E088E00E940E0161E005
:100D400087E00E940E0161E086E00E940E0161E0F2
:100D500085E00E940E018FE092E00E94510384E042
:100D600090E00E94B1040E94D30482E090E090934E
:100D70002D0280932C020E94710388E090E00E9473
:100D8000BB0287E090E00E94BB0286E090E00E94F8
:100D9000BB0285E090E00E94BB0262ED72E08BE056
:100DA00090E00E94A0026EE973E08CE090E00E9467
:100DB000A0026FE773E08AE090E00E94A0026FE477
:100DC00075E089E090E00E94A0020E949602E5CFC3
:100DD000E7E3F2E01382128288EE93E0A0E0B0E055
:100DE00084839583A683B78384E091E09183808395
:100DF00085EC90E09587848784EC90E097878687E0
:100E000080EC90E0918B808B81EC90E0938B828BD7
:100E100082EC90E0958B848B86EC90E0978B868BB0
:100E2000118E128E138E148E089597FB072E16F4D2
:100E3000009407D077FD09D00E944B0707FC05D02E
:100E40003EF4909581959F4F0895709561957F4FE1
:100E50000895A1E21A2EAA1BBB1BFD010DC0AA1FFB
:100E6000BB1FEE1FFF1FA217B307E407F50720F013
:100E7000A21BB30BE40BF50B661F771F881F991F8E
:100E80001A9469F760957095809590959B01AC01D7
:100E9000BD01CF010895AA1BBB1B51E107C0AA1FCA
:100EA000BB1FA617B70710F0A61BB70B881F991F0B
:100EB0005A95A9F780959095BC01CD010895EE0F44
:100EC000FF1F0590F491E02D099481E090E0F894E3
:100ED0000C948007F999FECF92BD81BDF89A9927AD
:100EE00080B50895262FF999FECF1FBA92BD81BD16
:100EF00020BD0FB6F894FA9AF99A0FBE019608959C
:040F0000F894FFCF93
:100F0400000000002D02A901F601D401E8017402D9
:100F140008000700060005000D0A00436C656172B5
:100F240065642070617373776F726420696E707585
:100F34007400456E74657265642070617373776FB5
:100F4400726420726573657400416C6C2064696717
:100F54006974732074797065640050617373776F7A
:100F6400726420636F72726563742E2041636365DB
:100F74007373206772616E74656400506173737774
:100F84006F726420696E636F7272656374004E657C
:100F9400772070617373776F72642073746F7265F6
:100FA40064004E6F20636F6E6669670053746F72DE
:100FB40065642064656661756C7420706173737711
:100FC4006F72640053746F72656420636F6E666938
:100FD4006775726174696F6E206D61726B65720002
:100FE400436F6E66696775726174696F6E206D61B7
:100FF400726B6572206578697374730043757272DD
:10100400656E742070617373776F72643A20005058
:10101400617373776F7264206C656E6774683A20CD
:021024000000CA
:00000001FF
